:100000000C9457000C9469000C9469000C946900DE
:100010000C9469000C9469000C9469000C946900BC
:100020000C9469000C9469000C9469000C946900AC
:100030000C9469000C9469000C9469000C9469009C
:100040000C9449020C9469000C9469000C946900AA
:100050000C9469000C9469000C9469000C9469007C
:100060000C9469000C946900000000002500280031
:100070002B00040404040404040402020202020229
:10008000030303030303010204081020408001025C
:1000900004081020010204081020000000080002DB
:1000A000010000030407000000000000000011240C
:1000B0001FBECFEFD8E0DEBFCDBF21E0A0E0B1E0B2
:1000C00001C01D92A731B207E1F70E9493020C9480
:1000D00078030C94000090E0FC01E656FF4F349149
:1000E000FC01EA57FF4F2491FC01EE58FF4FE491C9
:1000F000EE2309F43BC0332339F1333091F038F467
:100100003130A9F0323001F584B58F7D12C037301F
:1001100091F03830A1F03430B9F4809180008F7DB7
:1001200003C0809180008F77809380000DC084B5DC
:100130008F7784BD09C08091B0008F7703C0809114
:10014000B0008F7D8093B000F0E0EE0FFF1FE85904
:10015000FF4FA591B4918FB7F894EC91611103C052
:1001600020952E2301C02E2B2C938FBF08953FB7CF
:10017000F8948091050190910601A0910701B0913A
:10018000080126B5A89B05C02F3F19F00196A11DB7
:10019000B11D3FBFBA2FA92F982F8827820F911D1D
:1001A000A11DB11DBC01CD0142E0660F771F881F64
:1001B000991F4A95D1F708958F929F92AF92BF925F
:1001C000CF92DF92EF92FF926B017C010E94B70009
:1001D0004B015C01C114D104E104F104F1F00E946F
:1001E000B700DC01CB0188199909AA09BB09883E2F
:1001F0009340A105B10570F321E0C21AD108E108CE
:10020000F10888EE880E83E0981EA11CB11CC11471
:10021000D104E104F10419F7DDCFFF90EF90DF90F6
:10022000CF90BF90AF909F908F900895CF92DF9224
:10023000EF92FF920F931F93CF93DF93082F162F08
:10024000D0911001D73088F510930B01C0910B01AC
:100250000C1740F061E08C2F0E946B00CF5FC093C1
:100260000B01F4CFC0901101D0901201E12CF12CC0
:10027000C701B6010E94DC0080910B01811748F094
:1002800060E00E946B0090910B01915090930B01E4
:10029000F3CF91E0980F90930B01C701B6010E9434
:1002A000DC00DF5FD0931001CBCF10921001DF9103
:1002B000CF911F910F91FF90EF90DF90CF90089515
:1002C000EF92FF920F931F93CF93DF93EE24E3946B
:1002D000D0911001D73008F065C000910C01109149
:1002E0001601C0910D010430E0F4612F8C2F0E94A3
:1002F0006B00F0900E01612F8F2D0E946B006091BA
:1003000011017091120180E090E00E94DC00F394F2
:10031000F0920E01C150C0930D010F5F00930C01CC
:10032000DCCF80910E01815080930E01CF5FC0938E
:100330000D0110920C01F12EFE24F0921601009195
:100340000C01C0910D010430E8F46F2D8C2F0E9438
:100350006B006F2D80910E010E946B006091110166
:100360007091120180E090E00E94DC0080910E010B
:10037000815080930E01CF5FC0930D010F5F0093FA
:100380000C01DDCF80910E018F5F80930E01C15073
:10039000C0930D0110920C0110931601DF5FD093F2
:1003A000100196CF10921001DF91CF911F910F9104
:1003B000FF90EF9008954F925F926F927F92BF925D
:1003C000CF92DF92EF92FF920F931F93CF93DF9321
:1003D00010911001173008F04CC061E08DE00E94D0
:1003E0006B00B0901601C0911101D0911201CC2E7A
:1003F0004C2E512C612C712C80910F018A3068F4A5
:100400006B2D0E946B00C301B2010E94DC00809141
:100410000F018F5F80930F01EFCF815080930F0109
:1004200001E00B2500931601D12CE12CF12C8091D9
:100430000F01823068F0602F0E946B00C701B60187
:100440000E94DC0080910F01815080930F01EFCF5B
:100450008F5F80930F01C536D10528F0A897D09300
:100460001201C09311011F5F10931001B092160189
:10047000AFCF10921001DF91CF911F910F91FF909C
:10048000EF90DF90CF90BF907F906F905F904F90F4
:1004900008951F920F920FB60F9211242F933F933E
:1004A0008F939F93AF93BF9380910101909102012D
:1004B000A0910301B09104013091000123E0230FCA
:1004C0002D3720F40196A11DB11D05C026E8230F8C
:1004D0000296A11DB11D209300018093010190930C
:1004E0000201A0930301B093040180910501909152
:1004F0000601A0910701B09108010196A11DB11D4F
:100500008093050190930601A0930701B093080121
:10051000BF91AF919F918F913F912F910F900FBEFF
:100520000F901F901895789484B5826084BD84B52F
:10053000816084BD85B5826085BD85B5816085BDDE
:1005400080916E00816080936E0010928100809196
:10055000810082608093810080918100816080931E
:100560008100809180008160809380008091B10043
:1005700084608093B1008091B00081608093B0006E
:1005800080917A00846080937A0080917A00826002
:1005900080937A0080917A00816080937A008091C4
:1005A0007A00806880937A001092C1001092130143
:1005B0001092100184EF91E0909312018093110149
:1005C00082E080930F0186E080930E0185E08093A6
:1005D0000D0110920C0181E080930B0180930A01C0
:1005E00084E08093090101E080E0E82E80E0F82EAD
:1005F000DD24D394D09216010E94DB018091160174
:100600008027809316010E94DB010E946001809187
:1006100016018027809316010E946001D091140179
:10062000D43008F045C0109110011930D0F4C091B9
:10063000130160E08FEF8C0F0E946B00CF5F61E0D1
:100640008C2F0E946B00609111017091120180E06B
:1006500090E00E94DC00C09313011F5F1093100113
:10066000E2CF10921001C0911001C930D8F410915E
:100670001301115061E0812F0E946B0080911301E2
:1006800060E08F5F0E946B00609111017091120118
:1006900080E090E00E94DC0010931301CF5FC093D4
:1006A0001001E1CF10921001DF5FD0931401B6CF9B
:1006B0001092140180911501873088F462E085E082
:1006C0000E94160166E089E00E94160164E087E05E
:1006D0000E94160162E089E00E941601EBCF1092A1
:1006E0001501E114F10409F485CF0E94000082CFC6
:0406F000F894FFCFAC
:107E0000112484B714BE81FFF0D085E080938100F7
:107E100082E08093C00088E18093C10086E0809377
:107E2000C20080E18093C4008EE0C9D0259A86E02C
:107E300020E33CEF91E0309385002093840096BBD3
:107E4000B09BFECF1D9AA8958150A9F7CC24DD24C4
:107E500088248394B5E0AB2EA1E19A2EF3E0BF2EE7
:107E6000A2D0813461F49FD0082FAFD0023811F036
:107E7000013811F484E001C083E08DD089C08234E0
:107E800011F484E103C0853419F485E0A6D080C0E4
:107E9000853579F488D0E82EFF2485D0082F10E0AE
:107EA000102F00270E291F29000F111F8ED06801E7
:107EB0006FC0863521F484E090D080E0DECF843638
:107EC00009F040C070D06FD0082F6DD080E0C81688
:107ED00080E7D80618F4F601B7BEE895C0E0D1E017
:107EE00062D089930C17E1F7F0E0CF16F0E7DF06D8
:107EF00018F0F601B7BEE89568D007B600FCFDCFD4
:107F0000A601A0E0B1E02C9130E011968C91119780
:107F100090E0982F8827822B932B1296FA010C0160
:107F200087BEE89511244E5F5F4FF1E0A038BF0790
:107F300051F7F601A7BEE89507B600FCFDCF97BE46
:107F4000E89526C08437B1F42ED02DD0F82E2BD052
:107F50003CD0F601EF2C8F010F5F1F4F84911BD097
:107F6000EA94F801C1F70894C11CD11CFA94CF0C13
:107F7000D11C0EC0853739F428D08EE10CD085E9AC
:107F80000AD08FE07ACF813511F488E018D01DD067
:107F900080E101D065CF982F8091C00085FFFCCF94
:107FA0009093C60008958091C00087FFFCCF809118
:107FB000C00084FD01C0A8958091C6000895E0E648
:107FC000F0E098E1908380830895EDDF803219F02E
:107FD00088E0F5DFFFCF84E1DECF1F93182FE3DFCA
:107FE0001150E9F7F2DF1F91089580E0E8DFEE27F6
:047FF000FF270994CA
:027FFE00040479
:0400000300007E007B
:00000001FF
